:0300000002095999
:0C095900787FE4F6D8FD7581200208FAD2
:0C096500456D626554726F6E6963580046
:09097100D2B7D2B6C2B7C2B62259
:10084000AE071209717FA0120854AF0612085412A5
:0408500009717FA10A
:100854008F20E4FFEFD39407748094805011A20793
:1008640092B7D2B6C2B6E52025E0F5200F80E52088
:06087400B7FDD2B6C2B6CA
:01087A00225B
:10080000A2B79200E4FFEFD3940774809480501154
:10081000E52025E0F520A2B79200D2B6C2B60F803F
:10082000E5E520640D700ED2B7D2B6C2B6C2B712DB
:0F083000097AAF2022C2B7D2B6C2B6D2B7AF2074
:01083F002296
:09097A00C2B7D2B6D2B7C2B62250
:10091800AE05AD071209717FA0120854AF05120881
:0909280054AF0612085402097ACA
:0909830012084012080002097A72
:10087B008B148A158916AE071209717FA0120854C2
:10088B00AF068019AB14AA15A9161209316013050E
:10089B0016E5167002051514F9120931FF120854EA
:0508AB0080E202097A61
:1008B000120840E4F514C3E514940A74809480503F
:1008C0000E12080074082514F8A607051480E71214
:0408D000097A7F081A
:0108D4002201
:0F094A00759850438920758DFD758BFDD28E22D7
:08098C008F993099FDC29922F8
:1008D5008B148A158916AB14AA15A916120931604D
:1008E500130516E5167002051514F9120931FF12E4
:0508F500098C80E222E5
:1008FA0012094A7BFF7A097965E4FF12087BE4FF53
:0E090A001208B07B007A0079081208D580FE32
:10093100BB010689828A83E0225002E722BBFE02C4
:09094100E32289828A83E49322F7
:00000001FF
